S019000074656D7065726174757265206D657465722E7372656320
S11300000C9472000C948F000C948F000C948F004D
S11300100C948F000C948F000C948F000C948F0020
S11300200C948F000C948F000C948F000C948F0010
S11300300C948F000C948F000C948F000C948F0000
S11300400C948F000C948F000C948F000C948F00F0
S11300500C948F00B600CF00E800010119011901CA
S113006019011901190119011901190119011901BC
S113007019011901190119011901190119011901AC
S1130080190119011901190119011901190119019C
S113009019011901B600CF00E800010126013F0152
S11300A05801710189018901890189018901890145
S11300B089018901890189018901890189018901EC
S11300C089018901890189018901890189018901DC
S11300D089018901890189018901890126013F0179
S11300E05801710111241FBECFE5D8E0DEBFCDBF9A
S11300F010E0A0E6B0E0E0E8F9E002C005900D925F
S1130100AE36B107D9F720E0AEE6B0E001C01D92EB
S1130110AF36B207E1F70E9410030C94BE040C94AE
S1130120000087B1806487B987B1806887B986B1D8
S1130130806886B986B1846086B986B1826086B9E2
S1130140089586B1806486B93699FECF84B195B19D
S113015090E0089590E0FC01E154F109E432F105E6
S113016008F067C0E65DFF4F0C94B804413059F4C1
S11301702AB381E090E002C0880F991F6A95E2F7E4
S1130180822B8ABB08952AB381E090E002C0880FD5
S1130190991F6A95E2F7809582238ABB08954130BE
S11301A059F427B381E090E002C0880F991F6A9543
S11301B0E2F7822B87BB089527B381E090E002C069
S11301C0880F991F6A95E2F78095822387BB08956B
S11301D0413059F424B381E090E002C0880F991FA4
S11301E06A95E2F7822B84BB089524B381E090E002
S11301F002C0880F991F6A95E2F78095822384BB19
S11302000895413059F421B381E090E002C0880F91
S1130210991F6A95E2F7822B81BB089521B381E08F
S113022090E002C0880F991F6A95E2F780958223B7
S113023081BB089590E0FC01E154F109E432F10539
S113024008F067C0E25BFF4F0C94B804413059F4E6
S11302502BB381E090E002C0880F991F6A95E2F702
S1130260822B8BBB08952BB381E090E002C0880FF2
S1130270991F6A95E2F7809582238BBB08954130DC
S113028059F428B381E090E002C0880F991F6A9561
S1130290E2F7822B88BB089528B381E090E002C086
S11302A0880F991F6A95E2F78095822388BB089589
S11302B0413059F425B381E090E002C0880F991FC2
S11302C06A95E2F7822B85BB089525B381E090E01F
S11302D002C0880F991F6A95E2F78095822385BB37
S11302E00895413059F422B381E090E002C0880FB0
S11302F0991F6A95E2F7822B82BB089522B381E0AD
S113030090E002C0880F991F6A95E2F780958223D6
S113031082BB089541E062E081E40E941A018FECFF
S113032097E00197F1F700C0000040E062E081E44B
S11303300E941A018FEC97E00197F1F700C00000CA
S11303400895CF93C82F482F407150E05595479595
S113035055954795559547955595479563E081E49F
S11303600E941A014C2F407250E0559547955595BF
S1130370479555954795559547955595479564E007
S113038081E40E941A014C2F407450E0042E452F42
S1130390000C441F550B000C441F551F65E081E4FD
S11303A00E941A014C2F441F4427441F66E081E435
S11303B00E941A0141E061E081E40E941A010E9456
S11303C08A014C2F417063E081E40E941A014C2F92
S11303D0427050E05595479564E081E40E941A010B
S11303E04C2F447050E0559547955595479565E0D9
S11303F081E40E941A01C8704C2F50E0559547952E
S1130400559547955595479566E081E40E941A01F4
S113041041E061E081E40E941A010E948A018FECAC
S113042097E00197F1F700C00000CF910895CF93B2
S1130430C82F482F407150E05595479555954795DD
S1130440559547955595479563E081E40E941A01B7
S11304504C2F407250E055954795559547955595C5
S11304604795559547955595479564E081E40E94D5
S11304701A014C2F407450E0042E452F000C441FE9
S1130480550B000C441F551F65E081E40E941A01BE
S11304904C2F441F4427441F66E081E40E941A0144
S11304A040E061E081E40E941A010E948A014C2F1D
S11304B0417063E081E40E941A014C2F427050E0C5
S11304C05595479564E081E40E941A014C2F4470CD
S11304D050E0559547955595479565E081E40E9410
S11304E01A01C8704C2F50E055954795559547957E
S11304F05595479566E081E40E941A0140E061E069
S113050081E40E941A010E948A018FEC97E001970E
S1130510F1F700C00000CF9108952FEF81EE94E031
S1130520215080409040E1F700C0000041E063E0CA
S113053081E40E94AA0041E064E081E40E94AA00F0
S113054041E065E081E40E94AA0041E066E081E4C4
S11305500E94AA0041E061E081E40E94AA0041E017
S113056062E081E40E94AA0082E00E9417028FE107
S11305709EE40197F1F700C0000088E20E94170290
S11305808FEC97E00197F1F700C000008CE00E9427
S113059017028FEC97E00197F1F700C0000081E0AB
S11305A00E9417028FE19EE40197F1F700C000005A
S11305B086E00E9417028FEC97E00197F1F700C0E4
S11305C0000008959FEF980F923070F4662371F045
S11305D0613170F4813019F42FE7260F0AC082309C
S11305E041F42FEB260F05C020E803C020E801C02A
S11305F020E8822F0E9417028FEC97E00197F1F711
S113060000C000000895CF93DF93EC0103C00E9463
S1130610A101219688818111FACFDF91CF910895AC
S113062041E060E084E40E94AA0041E061E084E4E7
S11306300E94AA000E948D020E94910080E690E030
S11306400E9403030E94A100BC0180E090E00E948C
S1130650BD0320E030E040E85EE30E9423040E94F2
S11306608E0360936E006A3098F46DE081E00E941E
S1130670E20280916E00805D0E94A1018FED0E94D4
S1130680A10183E40E94A10180E20E94A101DACFCA
S11306906436C0F66DE081E00E94E20280916E0053
S11306A0CDEC8C9F812D1124869586958695805D51
S11306B00E94A10180916E008C9FC12D1124C695CA
S11306C0C695C695CC0F9C2F990F990FC90F8C1BFB
S11306D0805D0E94A1018FED0E94A10183E40E942C
S11306E0A10180916E00843130F441E061E084E442
S11306F00E941A01A7CF8F3130F041E060E084E41A
S11307000E941A019FCF40E060E084E40E941A0135
S113071040E061E084E40E941A0194CF0E94020444
S113072088F09F5798F0B92F9927B751B0F0E1F0AE
S1130730660F771F881F991F1AF0BA95C9F714C05E
S1130740B13091F00E941C04B1E008950C941C0493
S1130750672F782F8827B85F39F0B93FCCF3869597
S113076077956795B395D9F73EF4909580957095F4
S113077061957F4F8F4F9F4F0895E89409C097FB71
S11307803EF490958095709561957F4F8F4F9F4F64
S11307909923A9F0F92F96E9BB279395F6958795A8
S11307A077956795B795F111F8CFFAF4BB0F11F46B
S11307B060FF1BC06F5F7F4F8F4F9F4F16C0882312
S11307C011F096E911C0772321F09EE8872F762F48
S11307D005C0662371F096E8862F70E060E02AF089
S11307E09A95660F771F881FDAF7880F9695879575
S11307F097F9089557FD9058440F551F59F05F3FDE
S113080071F04795880F97FB991F61F09F3F79F02E
S113081087950895121613061406551FF2CF4695B0
S1130820F1DF08C0161617061806991FF1CF869532
S11308307105610508940895E894BB276627772716
S1130840CB0197F908950E9436040C94A7040E94E2
S1130850990438F00E94A00420F0952311F00C9420
S113086090040C94960411240C941D040E94FA0321
S113087070F3959FC1F3950F50E0551F629FF001EF
S1130880729FBB27F00DB11D639FAA27F00DB11D08
S1130890AA1F649F6627B00DA11D661F829F222791
S11308A0B00DA11D621F739FB00DA11D621F839F18
S11308B0A00D611D221F749F3327A00D611D231FEE
S11308C0849F600D211D822F762F6A2F11249F573C
S11308D050409AF0F1F088234AF0EE0FFF1FBB1F3F
S11308E0661F771F881F91505040A9F79E3F5105FE
S11308F080F00C9490040C941D045F3FE4F3983E44
S1130900D4F3869577956795B795F795E7959F5FA7
S1130910C1F7FE2B880F911D9695879597F9089539
S113092097F99F6780E870E060E008959FEF80EC9E
S1130930089500240A941616170618060906089541
S113094000240A9412161306140605060895092EA7
S11309500394000C11F4882352F0BB0F40F4BF2B16
S113096011F460FF04C06F5F7F4F8F4F9F4F089556
S1130970EE0FFF1F0590F491E02D0994F894FFCF3A
S111098054656D70657261747572653D00009A
S9030000FC
